{
  "contractName": "HelloWorld",
  "abi": [
    {
      "inputs": [
        {
          "internalType": "string",
          "name": "initMessage",
          "type": "string"
        }
      ],
      "stateMutability": "nonpayable",
      "type": "constructor"
    },
    {
      "inputs": [],
      "name": "message",
      "outputs": [
        {
          "internalType": "string",
          "name": "",
          "type": "string"
        }
      ],
      "stateMutability": "view",
      "type": "function",
      "constant": true
    },
    {
      "inputs": [
        {
          "internalType": "string",
          "name": "newMessage",
          "type": "string"
        }
      ],
      "name": "update",
      "outputs": [],
      "stateMutability": "nonpayable",
      "type": "function"
    }
  ],
  "bytecode": "0x608060405234801561001057600080fd5b506040516104bb3803806104bb8339818101604052602081101561003357600080fd5b810190808051604051939291908464010000000082111561005357600080fd5b8382019150602082018581111561006957600080fd5b825186600182028301116401000000008211171561008657600080fd5b8083526020830192505050908051906020019080838360005b838110156100ba57808201518184015260208101905061009f565b50505050905090810190601f1680156100e75780820380516001836020036101000a031916815260200191505b50604052505050806000908051906020019061010492919061010b565b50506101a8565b828054600181600116156101000203166002900490600052602060002090601f016020900481019282601f1061014c57805160ff191683800117855561017a565b8280016001018555821561017a579182015b8281111561017957825182559160200191906001019061015e565b5b509050610187919061018b565b5090565b5b808211156101a457600081600090555060010161018c565b5090565b610304806101b76000396000f3fe608060405234801561001057600080fd5b50600436106100365760003560e01c80633d7403a31461003b578063e21f37ce146100f6575b600080fd5b6100f46004803603602081101561005157600080fd5b810190808035906020019064010000000081111561006e57600080fd5b82018360208201111561008057600080fd5b803590602001918460018302840111640100000000831117156100a257600080fd5b91908080601f016020809104026020016040519081016040528093929190818152602001838380828437600081840152601f19601f820116905080830192505050505050509192919290505050610179565b005b6100fe610193565b6040518080602001828103825283818151815260200191508051906020019080838360005b8381101561013e578082015181840152602081019050610123565b50505050905090810190601f16801561016b5780820380516001836020036101000a031916815260200191505b509250505060405180910390f35b806000908051906020019061018f929190610231565b5050565b60008054600181600116156101000203166002900480601f0160208091040260200160405190810160405280929190818152602001828054600181600116156101000203166002900480156102295780601f106101fe57610100808354040283529160200191610229565b820191906000526020600020905b81548152906001019060200180831161020c57829003601f168201915b505050505081565b828054600181600116156101000203166002900490600052602060002090601f016020900481019282601f1061027257805160ff19168380011785556102a0565b828001600101855582156102a0579182015b8281111561029f578251825591602001919060010190610284565b5b5090506102ad91906102b1565b5090565b5b808211156102ca5760008160009055506001016102b2565b509056fea26469706673582212209e8c736ce3e6ae67ea4bffba3af6020d4ef1b9b32b7be7d79865413aef0c2d3164736f6c634300060c0033",
  "immutableReferences": {},
  "source": "// Specifies the version of Solidity, using semantic versioning.\r\n// Learn more: https://solidity.readthedocs.io/en/v0.5.10/layout-of-source-files.html#pragma\r\npragma solidity ^0.6.0;\r\n\r\n// Defines a contract named `HelloWorld`.\r\n// A contract is a collection of functions and data (its state).\r\n// Once deployed, a contract resides at a specific address on the Ethereum blockchain.\r\n// Learn more: https://solidity.readthedocs.io/en/v0.5.10/structure-of-a-contract.html\r\ncontract HelloWorld {\r\n\r\n    // Declares a state variable `message` of type `string`.\r\n    // State variables are variables whose values are permanently stored in contract storage.\r\n    // The keyword `public` makes variables accessible from outside a contract\r\n    // and creates a function that other contracts or clients can call to access the value.\r\n    string public message;\r\n\r\n    // Similar to many class-based object-oriented languages, a constructor is\r\n    // a special function that is only executed upon contract creation.\r\n    // Constructors are used to initialize the contract's data.\r\n    // Learn more: https://solidity.readthedocs.io/en/v0.5.10/contracts.html#constructors\r\n    constructor(string memory initMessage) public {\r\n        // Accepts a string argument `initMessage` and sets the value\r\n        // into the contract's `message` storage variable).\r\n        message = initMessage;\r\n    }\r\n\r\n    // A public function that accepts a string argument\r\n    // and updates the `message` storage variable.\r\n    function update(string memory newMessage) public {\r\n        message = newMessage;\r\n    }\r\n}",
  "sourcePath": "D:/Blockchain/truffle/contracts/HelloWorld.sol",
  "compiler": {
    "name": "solc",
    "version": "0.6.12+commit.27d51765.Emscripten.clang"
  },
  "schemaVersion": "3.4.1",
  "updatedAt": "2021-07-17T07:13:02.212Z",
  "networkType": "ethereum",
  "devdoc": {
    "kind": "dev",
    "methods": {},
    "version": 1
  },
  "userdoc": {
    "kind": "user",
    "methods": {},
    "version": 1
  }
}